:020000040000FA
:10000000B04BFF1F050700003138000025920000AB
:100010001107000013070000150700000000000092
:1000200000000000000000000000000017070000B2
:100030001907000000000000AB9100004507000018
:100040006B2D00007D2D00008F2D0000A12D0000E4
:10005000B32D0000C52D0000D72D0000E92D0000B4
:10006000FB2D00000D2E00001F2E0000312E000081
:10007000432E0000552E0000672E0000792E000050
:100080001F0700001F0700001F0700001F070000D8
:100090001F0700001F0700001F0700001F070000C8
:1000A0002126000037260000DD290000F32900008A
:1000B000092A00001F0700001F0700001F0700009B
:1000C0001F0700001F0700001F0700001F07000098
:1000D0001F0700001F0700001F0700001F07000088
:1000E0001F0700001F0700001F0700001F07000078
:1000F0001F070000231100001F0700006711000008
:100100001F070000AB1100001F070000EF110000E7
:100110001F070000331200001F07000077120000C5
:100120001F0700000D180000191800001F0700002D
:100130001F0700001F070000951F0000D71F0000C9
:10014000172000001F070000413300001F070000B8
:10015000EB13000001140000171400002D14000020
:100160001F0700001F0700001F0700001F070000F7
:10017000E9360000FF3600001F0700001F070000DF
:100180001F0700001F0700001F0700001F070000D7
:100190001F0700001F0700001F070000470C00009A
:1001A0005D0C0000730C0000890C00009F0C000027
:1001B0001F0700001F0700001F0700001F070000A7
:1001C0001F0700001F0700001F0700001F07000097
:1001D0001F0700001F0700001F0700001F07000087
:1001E0001F0700001F0700001F0700001F07000077
:10040000FFFFFFFFFFFFFFFFFFFFFFFFFEFFFFFFFD
:1004100000F002F800F0B7F80AA090E8000C82445F
:100420008344AAF10107DA4501D100F0ACF8AFF23C
:10043000090EBAE80F0013F0010F18BFFB1A43F0C2
:10044000010318479C0D0500DC0D05000A444FF020
:10045000000C10F8013B13F0070408BF10F8014B23
:100460001D1108BF10F8015B641E05D010F8016B68
:10047000641E01F8016BF9D113F0080F1EBF10F8CC
:10048000014BAD1C0C1B09D16D1E58BF01F801CBEF
:10049000FAD505E014F8016B01F8016B6D1EF9D572
:1004A0009142D6D370470000002300240025002687
:1004B000103A28BF78C1FBD8520728BF30C148BFC7
:1004C0000B6070476E2924F05D85702923F04E86FD
:1004D00066293CF00A8065293CF0078067293CF0DA
:1004E000048061293CF0038003681B0A28BF41F0A7
:1004F0008001692924F00A85642924F0078575297B
:1005000024F004856F2924F01786782923F01A86B1
:10051000E92924F0AF85E42924F0AC85F52924F0FD
:10052000A985EF2924F01486F82923F01986036899
:10053000DB0928BF41F08001632925F0F981732987
:1005400025F0FE81E32925F00982F32925F00E82AA
:10055000002070471FB53BF03CFF24F06DFC040009
:10056000002000213BF0C6F8401C60600020002104
:100570003BF0ECF8E060002000213BF0D1F8206176
:100580001FBD10B510BD24F031FC1146FFF7E2FF8E
:1005900000F0E7F824F078FC03B4FFF7F2FF03BCA7
:1005A00025F008FAC0BA70474F484CF22051C1817B
:1005B0004DF62811C1814FF4E97101804B4A4FF08B
:1005C000FF3050644A480621017000214170C37811
:1005D00023F06003C370C37843F0E003C370454B5E
:1005E0005364017141718179C906FCD5817911F09B
:1005F0000C0FFBD1704730B53D4908783E4A84095D
:100600004FF400404FF001030FD00C78B3EB941F70
:1006100058D14A78D2075ED0087AC0F3420103FA73
:1006200001F03649B1FBF0F055E04C7964063ED458
:100630000C78640710D40C7BE40700D110460A78CC
:10064000C2F3C20203FA02F2D2B2B0FBF2F04A786D
:1006500012F0300F00D04009C97801F0E00111F02C
:100660001F0F38D14911082935D2DFE801F00407FE
:100670000B0F13171A1D00EB800005E000EB800044
:10068000000228E0C0EB0010C00124E000EB800075
:10069000400220E04FF4377148431CE04FF4B7614B
:1006A000FAE740F69501F7E740F67131F4E708798B
:1006B000497900F01F00401CB2FBF0F001F01F016F
:1006C0001831E9E70C780225B5EB941F0BD1097BB3
:1006D000C90700D110460549496C03EB1171B0FB05
:1006E000F1F00749086030BD00200540008004405B
:1006F000004006400000130180F0FA0200093D00AE
:10070000000000200948804709480047FEE7FEE74F
:10071000FEE7FEE7FEE7FEE7FEE7FEE7FEE7FEE7B1
:1007200004480549054A064B70470000A90500002A
:1007300011040000B037FF1FB04BFF1FB03BFF1F7D
:10074000B03BFF1F10B505F09FFB03F07BFEBDE83B
:10075000104005F0A4BB0A21B0FBF1F0401C08F0EA
:1007600072B910B508F00AFD00F06BF8002010BD5A
:1007700010B544A105200CF0EAFC03220821104624
:1007800000F0C8F803220921104600F0C3F83DA08C
:1007900005F0B8FE3DA100200CF011FC3CA00CF0CF
:1007A0004BFB3CA102200CF074FD02220E21032021
:1007B00000F0B0F802220D21032000F0ABF8022275
:1007C0000C21032000F0A6F8344901200222086021
:1007D0000F21032000F09EF8304B2EA230A13248AA
:1007E0000DF038F82D490020091D022208600B2168
:1007F000032000F08FF8294B2B481B1D25A22BA1AD
:1008000050300DF027F842F2107002F01BFC01206E
:1008100002F031FCBDE81040012002F038BC1CB5EC
:1008200020201421CDE9000183010022214922A0CA
:1008300007F0E9FF002803D0BDE81C4007F088BF9F
:100840001CBD10B502F0EEFF4FF4E13149F2DD00BE
:1008500000F01CFC1A491B4805F050FFFFF788FF09
:1008600005F025FE08F03CFB07F023FD03F056FEE3
:1008700008F03BFB04F010F8FFF7D1FFBDE8104093
:1008800007F033BD75617274350000007364300089
:10089000727463007370693200000000040000206D
:1008A00073706932310000009406FF1F7370693263
:1008B00030000000C9080000696E69740000000083
:1008C00000000120B04BFF1F10B522F022FD0CF0FC
:1008D00038FA21F065FB08A005F0C9FD0DF08CFD8C
:1008E00012F079FE0FF009FF0CF09CF807F007FFFB
:1008F000BDE8104007F0F5BF737461727420696E33
:100900006974207468726561642040204446533ADB
:100910000D0A000030B5ED4B9C6BED4D55F82050A5
:100920002C439C63EA4B143B53F8204054F821506D
:1009300025F4E06544F8215053F8200050F82130A8
:100940004FF4E06404EA0222134340F8213030BD42
:1009500030B5DE4B9C6BDE4D55F820502C439C632C
:10096000DB4B143BAAB1012A1AD0022A10D153F84A
:10097000202052F8214044F0020442F8214053F86C
:10098000200050F8212022F0010200BF40F8212071
:1009900030BD53F8200050F8212022F00202F5E784
:1009A00053F8202052F8214044F0020442F821403C
:1009B00053F8200050F8212042F00102E6E730B55C
:1009C000C24B9C6BC24D55F820502C439C63C04BCE
:1009D000143B012A53F8200050F8212005D022F0C2
:1009E000200200BF40F8212030BD42F02002F9E78C
:1009F00030B5B64B9C6BB64D55F820502C439C63DC
:100A0000B34B143B012A53F8200050F8212004D0A6
:100A100022F0100240F8212030BD42F01002F9E728
:100A200030B5AA4B9C6BAA4D55F820502C439C63C3
:100A3000A74C0123283C8B4054F82000012A41692F
:100A400002D09943416130BD1943FBE710B504461C
:100A5000417840682378052918D2DFE801F00306C1
:100A60001E212B00C1B2002201E0C1B202221846B1
:100A7000FFF76EFF60680022C1B22078FFF79FFF8A
:100A800060680022C1B22078FFF7CAFF60680122C7
:100A9000C1B22078BDE810403CE7C1B20122E6E7D0
:100AA000C1B201221846FFF753FF60680122C1B2AC
:100AB000207808E0C1B200221846FFF749FF6068BD
:100AC0000022C1B22078FFF77AFF60680122C1B22C
:100AD0002078D9E71CB5C4B28DF800408DF801200C
:100AE00068460191FFF7B2FF20461CBD10B5784C57
:100AF0000123283C8B4054F820001AB14168194367
:100B0000416010BD81681943816010BD704A283A68
:100B100052F820004269CA40D20701D0006800E0C4
:100B20000069C84000F001007047694A283A52F84D
:100B30002000C26801238B401A43C2607047644999
:100B4000283951F8200000697047614A283A52F864
:100B5000200001607047F0B45C4CA56B5C4E56F809
:100B600020603543A5635A4C143C54F8205055F886
:100B7000216026F4702645F82160A4F11C053BB1E4
:100B8000082A11D2DFE802F01219202930373E4539
:100B90002856012100F01F02914040094FF0E02249
:100BA00002EB8000C0F88011F0BC704754F82000C0
:100BB00050F8212042F480320CE054F8200050F824
:100BC000212042F4003205E054F8200050F82120A2
:100BD00042F4403240F82120E6E754F8202052F851
:100BE000213043F400231AE054F8202052F8213039
:100BF00043F4102313E054F8202052F8213043F43A
:100C000020230CE054F8202052F8213043F4302304
:100C100005E054F8202052F8213043F4402342F8F4
:100C200021302856F0BC00F045B8284A10B5936B27
:100C3000274C54F8204023439363002902D0254ACF
:100C400042F8201010BD244908684FF0FF320A60B6
:100C500020490968002900D0084770471F490868E3
:100C60004FF0FF320A601B494968002900D008474D
:100C700070471B4908684FF0FF320A6015498968C0
:100C8000002900D008477047164908684FF0FF3226
:100C90000A601049C968002900D008477047124906
:100CA00008684FF0FF320A600A490969002900D03C
:100CB0000847704700F01F020121914040094FF0A2
:100CC000E02202EB8000C0F8001170470080044071
:100CD00024C503003407FF1FA0900440A0A00440D7
:100CE000A0B00440A0C00440A0D00440F74951F88F
:100CF0002000007C483100F0700001EB900000689B
:100D00007047F24A10B503460C4652F82300017CA6
:100D1000090608D51846FFF7E9FF52F82310097DA8
:100D20008842F7D902E001790906FCD552F8230080
:100D3000C471C4F30020002852F82300817902D046
:100D400041F0400101E021F04001817110BD10B57A
:100D5000044681B2DE484078FFF7D3FF204610BD3D
:100D6000DA4A10B552F820301C79A4060AD59B79CE
:100D7000DB091B020B8052F82000C07903430B8073
:100D8000002010BD012010BD18B5D14C6946607817
:100D9000FFF7E6FF0028F9D1BDF80000C0B218BD8A
:100DA00070B5CA490379183151F8332001EBC301FA
:100DB000146849680C4314600279C44951F8222030
:100DC000D37823F00C03D370826803681401B3FB5B
:100DD000F4F25B01B3FBF4F3544203EB44130479E4
:100DE00051F824402578160AC6F3040635432570C9
:100DF000047951F824406270027951F82220947AE3
:100E0000C3F304031C439472027B22B1022A10D064
:100E1000032A1CD120E0027951F82220937823F094
:100E200002039370027951F82220937823F0100383
:100E30000CE0027951F82220937843F0020393707A
:100E4000027951F82220937823F001039370427BBA
:100E500082B1012A30D11EE0027951F82220937824
:100E600043F002039370027951F82220937843F003
:100E70000103EBE7027951F8222093789B0731D4E4
:100E8000937823F010039370027951F82220937A1B
:100E900023F020030FE0027951F8222093789B077A
:100EA00020D5937843F010039370027951F82220F3
:100EB000937A43F020039372027951F822205379F8
:100EC00023F020035371027951F82210CA7842F0BE
:100ED0000C02CA707E490A780AB100794870002075
:100EE000087070BD937843F01003CCE778494870E0
:100EF0007047764A52F8200002791206FCD5002984
:100F0000017C02D041F0800101E021F080010174F8
:100F100070476E4A002952F82000017C02D041F04F
:100F2000080101E021F0080101747047674951F898
:100F30002000007C483100F0070051F82000704785
:100F4000624A10B552F82030DC7824F00804DC70D6
:100F500052F82030D97452F82000C17841F00801CD
:100F6000C17010BD594A10B552F82030DC7824F019
:100F70000404DC7052F82030597552F82000C17812
:100F800041F00401C17010BD504B30B4183353F818
:100F9000304003EBC00325685B681D4325604B4C64
:100FA0004A4B083C99B101292BD002291ED00329B4
:100FB0003ED153F82010002ACA783BD042F02002DC
:100FC000CA7053F82000C17A41F020012FE053F895
:100FD0002010002ACA7802D042F0800201E022F0FC
:100FE0008002CA70205630BC00F067B953F8201058
:100FF000002ACA7802D042F02002F2E722F0200252
:10100000EFE753F82010002ACA7808D042F0800297
:10101000CA7053F82000C17A41F0800107E022F045
:101020008002CA7053F82000C17A21F08001C17299
:1010300030BC704722F02002CA7053F82000C17AF9
:1010400021F02001F3E7214A10B5183252F8303070
:1010500002EBC0021C68526814431C60002902D0D5
:101060001C4A42F8201010BD184A10B5183252F828
:10107000303002EBC0021C68526814431C60002927
:1010800003D0144A183242F8201010BD13B586B0B0
:1010900006980391C0F302008DF8080000208DF837
:1010A00010008DF811006946022002F091FB0698AD
:1010B000410703D0C0F30200012803D16946002094
:1010C00002F086FB00980024019011E040C5030067
:1010D0000C0000203C070020C0F34421C0F3821222
:1010E0002144C9B2C0F3C200FFF714FC641CE4B28F
:1010F0000698C0F38431A142EED801A8FFF750FE54
:1011000006980021C0F30200FFF7F3FE06980021C5
:10111000C0F30200FFF7FDFE069808B0C0F302001E
:1011200010BD38B56B4C207900060AD5E078000672
:1011300007D56948016809B168468847BDF80000CD
:10114000E071207980060DD5E07880060AD5E07937
:10115000ADF80000604818300168002902D0BDF8E1
:101160000000884738BD38B55C4C207900060AD5A8
:10117000E078000607D55848416809B168468847B5
:10118000BDF80000E071207980060DD5E07880067A
:101190000AD5E079ADF800004F48183041680029C1
:1011A00002D0BDF80000884738BD38B54C4C2079D6
:1011B00000060AD5E078000607D54748816809B1DE
:1011C00068468847BDF80000E071207980060DD59B
:1011D000E07880060AD5E079ADF800003E48183086
:1011E0008168002902D0BDF80000884738BD38B5B5
:1011F0003C4C207900060AD5E078000607D5364831
:10120000C16809B168468847BDF80000E0712079DF
:1012100080060DD5E07880060AD5E079ADF80000AB
:101220002D481830C168002902D0BDF80000884759
:1012300038BD38B52C4C207900060AD5E078000678
:1012400007D52548016909B168468847BDF80000FF
:10125000E071207980060DD5E07880060AD5E07926
:10126000ADF800001C4818300169002902D0BDF813
:101270000000884738BD38B51C4C207900060AD5D7
:10128000E078000607D51448416909B168468847E7
:10129000BDF80000E071207980060DD5E078800669
:1012A0000AD5E079ADF800000B48183041690029F3
:1012B00002D0BDF80000884738BD00F01F020121B0
:1012C000914040094FF0E02202EB8000C0F800118D
:1012D0007047000000A006403C07002000B0064018
:1012E00000C0064000D0064000A00E4000B00E40F6
:1012F00010B504465348C16B41F40001C163524923
:10130000022002F065FA5049504A0868B0FBF2F03A
:101310004FF47A724243C1E9000261682278414386
:101320004B4800EB0212C2F80011217800EB0111CA
:10133000D1F8082142F00102C1F80821016821F02A
:101340000201016010BD1CB58DF8000068460191D6
:10135000FFF7CEFF1CBD3B4A10B5D36B43F400032F
:10136000D3633B4B03EB0012D9B1012918D13949A2
:101370000856012100F01F04A14040094FF0E0246D
:1013800004EB8000C0F80011D3F80C0140F001001C
:10139000C3F80C01D2F8080140F00200C2F80801BD
:1013A00010BDD2F8080120F00200F7E7284901EB50
:1013B000001000F58470016821F0010101600168EE
:1013C00041F0010101607047214901EB0010D0F8A4
:1013D000040170471B4AD36B43F40003D363002915
:1013E00002D01D4A42F8201070471C48016841F0A5
:1013F0000101016018480068002800D000477047CC
:101400001748016841F00101016013484068002855
:1014100000D0004770471348016841F001010160A6
:101420000D488068002800D0004770470E480168CA
:1014300041F0010101600848C068002800D0004761
:1014400070470000008004400000FF1F40420F0072
:1014500000700340A4C503004807FF1F0C71034040
:101460001C7103402C7103403C710340ED4A52F85B
:10147000200050F82100000601D50020704701200F
:10148000704770B5E74E0124361F4FF0E025331D3D
:1014900062B1012A1CD0022A20D0032A05D153F8B8
:1014A0002000016A41F00401016270BD325602F071
:1014B0001F06B440520905EB8202C2F8804153F87E
:1014C000200050F8212022F0400240F8212070BD79
:1014D00053F82000016A21F00401E5E753F82020C9
:1014E00052F8213043F0400342F82130305600F0EA
:1014F0001F018C40400905EB8000C0F8004170BD21
:1015000070B5C84D044655F82400416A41F0030106
:10151000416255F82400416A41F00301416255F8E7
:101520002400816841F00301816055F82400416A7C
:1015300041F04001416255F82400416A41F08001C8
:101540004162002211462046FFF79BFFB64900206A
:10155000401C8842FCD355F82410486A400601D547
:10156000012070BDC86C8A6C10444A6C10440A6C2F
:101570001044CA6B10448A6B4FF40043104443EA92
:101580005002C86E8E6E30444E6E30440E6E304443
:10159000CE6D30448E6D304443EA50004B6A23F0E8
:1015A00080034B6255F82410CA6255F82410086372
:1015B000002070BD70B59B4A01680832044652F89D
:1015C000310002EBC101036849680B4303602068E6
:1015D000FFF796FF9348216850F821108A6822F09F
:1015E00003028A60216850F821108A68637903F049
:1015F00003031A438A60216850F821100A6A22F016
:1016000003020A62216850F821100A6AA37A03F0E3
:1016100003031A430A62216850F821108A6822F0F5
:101620000C028A60216850F821108A68A3790C2581
:1016300005EA83031A438A6021790129216850F859
:1016400021100A6A14D002F040020A62217A0029AD
:10165000216850F821104A6A0DD022F008024A622F
:10166000617A052947D2DFE801F009101C2A380009
:1016700042F04002E9E742F00802F0E7216850F842
:101680002100416A21F0030134E0216850F8211063
:101690004A6A22F003024A62216850F82100416A36
:1016A00028E0216850F821104A6A22F003024A62B9
:1016B000216850F82100416A41F001011AE02168D7
:1016C00050F821104A6A22F003024A62216850F859
:1016D0002100416A41F002010CE0216850F821101C
:1016E0004A6A22F003024A62216850F82100416AE6
:1016F00041F00301416270BD4A4A41B1012905D15F
:1017000052F82000C16841F01001C160704752F8E2
:101710002000C16821F01001F7E713B584B0012261
:1017200004988DF80520C0F30200009000208DF889
:1017300006108DF808208DF804008DF809008DF84A
:1017400007008DF80A00044616E000BFC0F34421EC
:10175000C0F382122144C9B2C0F3C200FFF7DAF825
:1017600004980022C0F344212144C9B2C0F3C2004E
:10177000FFF7EEF8641CE4B20498C0F38431A14290
:10178000E4D86846FFF716FF0498010EC0F3020084
:10179000FFF7B2FF049806B0C0F3020010BD30B5E9
:1017A000204B53F8204054F8225025F01F0544F8F0
:1017B000225053F8200050F8223001F01F010B4353
:1017C00040F8223030BD174A52F82000102202EBB8
:1017D00081014058704711B500220098C0F30204FF
:1017E000C0F3C4412046FFF7DAFF0E4850F824004A
:1017F00001680906FCD52046BDE818400021E2E753
:10180000002902D0094A42F82010704707480068B2
:10181000002800D00047704704484068002800D0E6
:1018200000477047ACC50300A086010010000020EF
:1018300070B5FB4B53F8304003EBC00325685B6881
:101840001D432560F64B00240C3B53F820502C60C0
:1018500053F820506E6D46F004066E6553F8205024
:101860006C6053F82050EC6453F82040A16053F8AA
:1018700020404FF0FF31C4F8981053F820100C6846
:1018800024F018040C6053F820100C6844F008048D
:101890000C6053F820100C6824F007040C6053F817
:1018A0002000016802F007021143016070BD70B5AD
:1018B000044600201D46062A10D2DFE802F0030984
:1018C000191F252B084600F0C6FBC100012004E0CB
:1018D000084600F0C0FBC10002208840D0490C3906
:1018E000012D51F824104A6E1AD082434A6670BD09
:1018F000084600F0B0FBC1000420EEE7084600F007
:10190000AAFBC1001020E8E7084600F0A4FBC100D4
:101910002020E2E7084600F09EFBC1004020DCE703
:101920000243E3E7BE4B10B50C3B0C2404EBC101B2
:1019300072B1012A0BD153F82020545844F004040A
:10194000545053F82000425822F00802425010BD73
:1019500053F82020545824F00404545053F8200025
:10196000425842F00802F1E72DE9F0410446AC4D3F
:101970000C200F460C3D4FF0030800EBC706062A6B
:1019800073D2DFE802F00322735137C755F8240001
:10199000416D21F00101416555F8240050F8801F88
:1019A00021F00101016055F82400016821F02001B7
:1019B000016055F82400815941F030018151002225
:1019C00039462046FFF7AEFF12E055F82400416D7E
:1019D00021F00101416555F8240050F8801F21F0E5
:1019E0000101016055F82400016841F02001016007
:1019F0000023A9E055F8240050F8801F21F00101D0
:101A0000016055F82400416D21F00101416555F850
:101A10002400016821F02001016055F8240081595B
:101A200021F030018151E3E755F8240050F8801F80
:101A300021F00101016055F82400016821F0200126
:101A4000016055F82400416D41F00401416555F8ED
:101A50002400416D41F00101416501230022394616
:101A60002046FFF724FF012320E051E055F8240031
:101A700050F8801F21F00101016055F82400016831
:101A800021F02001016055F82400416D41F004016E
:101A9000416555F82400416D41F001014165012384
:101AA000002239462046FFF702FF00230122394673
:101AB0002046FFF7FCFE0023022239462046FFF7AE
:101AC000F6FE0023032239462046FFF7F0FE0123ED
:101AD000042239462046FFF7EAFE00230522394654
:101AE0002046FFF7E4FE55F82400815941F030010B
:101AF0008151002239462046FFF714FF55F8241083
:101B0000C1F8588055F82400816D41F0800181654D
:101B1000BDE8F08155F8240050F8801F41F0010124
:101B2000016055F82400016821F02001016055F89A
:101B30002400416D41F00401416555F82400416DD8
:101B400041F0010141650123002239462046FFF79B
:101B5000AEFE0023012239462046FFF7A8FE0023EF
:101B6000022239462046FFF7A2FE0023032239460F
:101B70002046FFF79CFE0023042239462046FFF74B
:101B800096FE39462046BDE8F041002305228EE648
:101B900037B50D4600981446C0F3020004224FF6F4
:101BA000FF71FFF745FE00980522C0F302000021F7
:101BB000FFF7DAFE1A480C3815B1012D22D110E0DA
:101BC0000099C1F3020250F8221051F8803F23F02F
:101BD00020030B6050F8221051F8802F22F01002E1
:101BE0000FE00099C1F3020250F8221051F8803F33
:101BF00043F020030B6050F8221051F8802F42F080
:101C000010020A6014B1012C16D10BE00099C1F347
:101C1000020150F8210050F8801F21F008010AE06D
:101C2000D4C503000099C1F3020150F8210050F817
:101C3000801F41F00801016000241FE0C0F344212F
:101C4000C0F382122144C9B2C0F3C200FEF762FEA3
:101C500000980122C0F344212144C9B2C0F3C2005C
:101C6000FEF776FE00980122C0F344212144C9B258
:101C7000C0F3C200FEF7A3FE641CE4B20098C0F3F8
:101C80008431A142DAD8C0F302003EBDF84B10B552
:101C900053F82040D4F88040C4F38004147053F803
:101CA0002000406880B2086010BDF14A002152F85F
:101CB000200041607047F0B5ED4B53F82040A56817
:101CC000554342F21072B5FBF2F2656E15F0013F1A
:101CD0004FF0100505EBC10519D0CF074FF00006F6
:101CE00007D0082707EBC101665053F820104A516E
:101CF00006E0665153F82040182505EBC1016250FB
:101D000053F820004FF0FF31C0F89810F0BD625139
:101D1000F0BD2DE9F743002482B089469046254660
:101D20000CE000BFC0F34421C0F382122944C9B2C1
:101D3000C0F3C200FEF7EEFD6D1CEDB20298C0F3D9
:101D40008431A942EED84FF6FF766946022001F0B1
:101D50003FFDDDF800C0BCFBF8F0B0FBF6F2B0FBD5
:101D6000F2F0B0F5803F01D302F101024FF0000123
:101D70004FF0010000FA01F3D51A01D59F1A00E0D7
:101D80002F46B74205D20C46002D01DA9E1A00E01C
:101D90002E46491CC9B20729ECD300FA04F191423E
:101DA00001DA641CE4B2072C00D90724A040BCFB74
:101DB000F0F1B1FBF8F10298491EC0F3020022468F
:101DC000FFF736FD5FEA090005D001280AD0B9F116
:101DD000020F0FD11DE002980022C0F3C441C0F3EE
:101DE000020005E002980222C0F3C441C0F30200E1
:101DF000FFF7BAFD029841F28832C0F3C441C0F344
:101E00000200FFF758FF029805B0C0F30200BDE8DA
:101E1000F08302980322C0F3C441C0F30200E7E755
:101E200073B50D4600240AE0C0F34421C0F38212CA
:101E30002144C9B2C0F3C200FEF76CFD641C0098D7
:101E4000C0F38431A142EFD8C0F302002A464FF616
:101E5000FF71FFF7EDFC009802B0C0F3C441BDE88C
:101E60007040C0F3020004227EE530B5804B0C25A3
:101E700005EBC10153F82040655825F00C0565506D
:101E800052B1012A14D0022A05D153F82000425839
:101E900042F00C02425030BD53F82020545824F038
:101EA0000804545053F82000425842F00402F1E76D
:101EB00053F82020545844F00804545053F820009C
:101EC000425822F00402E5E7694A52F82000102245
:101ED00002EBC10140587047654A52F8200041604A
:101EE0007047002902D0634A42F82010704710B5AD
:101EF0005F4B11293FD2DFE801F0091515151515C3
:101F000015151523232323232323230053F82010FF
:101F1000002A0A6802D042F0400201E022F04002AA
:101F20000A6028E00424002A53F8202004EBC101B1
:101F3000535802D043F040031CE023F0400319E063
:101F4000002A6FF03B0453F8202004EBC1015458E1
:101F500008D044F04004545053F82020535843F024
:101F6000010307E024F04004545053F82020535854
:101F700023F0010353503E49091F0856012100F088
:101F80001F02914040094FF0E02202EB8000C0F8B0
:101F9000001110BD374810B5006800B180473649C0
:101FA000086810F0C00F03D0086820F080000860B7
:101FB0005FF0000001EBC002D26812F0C00F06D043
:101FC00001EBC000C16821F08001C16010BD401C60
:101FD0000828EFD310BD274810B5406800B18047EE
:101FE0002649086810F0C00F03D0086820F0800070
:101FF0000860002001EBC002D26812F0C00F06D0CA
:1020000001EBC000C16821F08001C16010BD401C1F
:102010000228EFD310BD174810B5806800B1804783
:102020001749086810F0C00F03D0086820F080003E
:102030000860002001EBC002D26812F0C00F06D089
:1020400001EBC000C16821F08001C16010BD401CDF
:102050000228EFD310BDA8B1012813D0022813D055
:10206000032811D0042811D005280FD00320704771
:10207000C8C503005807FF1F0080034000900340BD
:1020800000800B400020F2E70120F0E70220EEE79D
:1020900038B50446F948416BF94B226853F82220C1
:1020A000114341632068A3F1080555F820008178A9
:1020B00021F0800181706946022001F089FBD4E99A
:1020C0000002009900F0C2FA206855F820008178DB
:1020D00041F08001817038BD13B582B000240298B0
:1020E0000191C0F30200009020E000BFC0F3442142
:1020F000C0F382122144C9B2C0F3C200FEF70AFC49
:1021000002980122C0F344212144C9B2C0F3C200A5
:10211000FEF71EFC02980122C0F344212144C9B2FB
:10212000C0F3C200FEF74BFC641CE4B20298C0F39B
:102130008431A142DAD86846FFF7AAFF029804B0BA
:10214000C0F3020010BDCE49083951F82020937821
:1021500043F01003937051F82000817841F0200182
:1021600081707047C649083951F82000817841F0E4
:10217000040181707047C249083951F820209378D2
:1021800023F02003937051F82000817821F0100192
:1021900081707047BA4A083A52F8200001717047BE
:1021A000B749083951F82000007970474906090EEF
:1021B000012A07D041F00101B14A083A52F8200043
:1021C0000171704701F0FE01F6E730B5AC4900231C
:1021D000083941F2883451F8202001E05B1C00BF2F
:1021E000D5782D0601D4A342F8D3002301E05B1C6F
:1021F00000BFD578AD0701D4A342F8D3D47844F01A
:102200000204D47041F27E32934201D9022030BDE3
:1022100051F82000C078C007F9D0012030BD984A9D
:10222000083A012952F82000817803D021F01001EA
:102230008170704741F01001FAE79149083951F86F
:102240002000817841F00801817070478C4908397D
:1022500051F82000817821F008018170704730B575
:10226000874D01230C3D4FF0E0242A1D61B1012967
:1022700019D002291DD0032905D152F820008178F8
:1022800041F00101817030BD295601F01F05AB40BE
:10229000490904EB8101C1F8803152F820008178AE
:1022A00021F04001EEE752F82000817821F0010191
:1022B000E8E7295601F01F05AB40490904EB81010D
:1022C000C1F8003152F82000817841F04001D9E78F
:1022D000002902D06B4A42F820107047684908393B
:1022E00051F82000C078800601D5002070470120F9
:1022F00070472DE9FF4F0446DDE90D6C8B4698468B
:10230000002502AFFFF71FFF012259462046FFF7C5
:102310004DFF2046FFF759FF42F2107978B1204671
:10232000FFF729FF4A4600E06D1C2046FFF7D6FF65
:1023300008B99542F8D3012004B0BDE8F08FBCF194
:10234000000F05D0DFF838A10025AAF1080A23E024
:102350002046FFF710FF2046FFF7C0FF0028FAD005
:1023600064E000BF5AF8241017F8010B08712046EA
:10237000FFF72BFF70B12046FFF7FDFE00224B4612
:1023800000E0521C2046FFF7A9FF08B99A42F8D393
:102390000220D1E76D1CEDB24545E3D32046FFF79F
:1023A000E1FE002259462046FFF700FF2046FFF7D6
:1023B0000CFF48B12046FFF7DEFE2046FFF78EFFF8
:1023C0000028FAD00320B7E700212046FFF727FFB7
:1023D0005AF8240000792046FFF738FF2046FFF71F
:1023E000F4FE0025ACF1010C0CE000BFFFF7D8FEB5
:1023F00006F8010B2046FFF729FF2046FFF7E5FE10
:102400006D1CEDB265452046F0D3FFF7C9FE307074
:102410002046FFF712FF2046FFF7D7FE2046FFF7C2
:10242000AAFE2046FFF75AFF0028FAD0002083E7D3
:102430002DE9FF438146DDE90BC788461C4600268F
:1024400002ADFFF780FE012241464846FFF7AEFE8F
:102450004846FFF7BAFE42F2107868B34846FFF7E5
:102460008AFE424600E0761C4846FFF737FF08B96F
:102470009642F8D3012004B0BDE8F0830080044008
:10248000F8C503000800FF1F56F8290015F8011BC6
:1024900001714846FFF799FE78B14846FFF76BFE99
:1024A0000022434600E0521C4846FFF717FF08B9D8
:1024B0009A42F8D30220DEE7834E641EE4D217E08E
:1024C00056F829001CF8011B01714846FFF77DFEF4
:1024D00070B14846FFF74FFE0022434600E0521C11
:1024E0004846FFF7FBFE08B99A42F8D30320C2E73B
:1024F0007F1EE5D24846FFF73EFE4846FFF7EEFE58
:102500000028FAD00020B6E71FB582B0012405AB41
:10251000CDE900342346FFF78BFF06B010BD1CB594
:102520000124CDE900342346FFF7E3FEC0B21CBD11
:102530002DE9F04389461746984605460024FFF7E3
:1025400002FE012249462846FFF730FE2846FFF7E3
:102550003CFE42F2107660B12846FFF70CFE00E028
:10256000641C2846FFF7BAFE08B9B442F8D301202C
:1025700082E7DFF854C15CF8250007712846FFF7B1
:1025800024FE002828460BD0FFF7F5FD00E0641C70
:102590002846FFF7A3FE08B9B442F8D302206BE740
:1025A000FFF7E9FD2846FFF799FE0028FAD02846F4
:1025B000FFF7C9FD002249462846FFF7F7FD2846E8
:1025C000FFF703FE48B12846FFF7D5FD2846FFF781
:1025D00085FE0028FAD003204EE700212846FFF7A9
:1025E0001EFE5CF8250000792846FFF72FFE2846DE
:1025F000FFF7EBFD2846FFF7D3FD88F800002846DB
:10260000FFF71BFE2846FFF7E0FD2846FFF7B3FD66
:102610002846FFF763FE0028FAD000202CE773E776
:102620002A48C17841F00201C17029480068002899
:1026300000D0004770472748C17841F00201C170BF
:1026400023484068002800D0004770472DE9F04734
:1026500082461420B1FBF0F0904233D34FF00008D3
:10266000194F4FF0FF33C44640464FF00109103771
:1026700009FA00F65FF0000407EB84056D887543E6
:10268000B1FBF5F5AA4201D9551B00E0AD1A9D42F8
:1026900004D217F824C080462B0002D0641C322CD0
:1026A000EAD3401C022801D8002BE1D14FEA881060
:1026B000054AC0F38110CCF3050141EA801152F8BC
:1026C0002A004170BDE8F087F0C5030000600640B5
:1026D0000800FF1F007006402DE9F843FE4C054638
:1026E0000E4654F825000C2101EB8601DDE908C8EF
:1026F000475827F0F047475054F825004758DB0665
:10270000A3F1006303F0F0431F434750BCF1000FF7
:1027100003D0BCF1010F0CD105E054F8250043585B
:1027200023F0807304E054F82500435843F080738D
:10273000435032B1012A0AD0022A1BD0032A0DD1FC
:1027400024E054F82500425822F0806217E054F843
:102750002500425822F080621DE042506946022066
:1027600001F036F84246F1B22846009B00F057F9D6
:10277000BDE8F88354F82500425842F08062425088
:1027800054F82500425822F00072E6E754F825007C
:10279000425842F08062425054F82500425842F0BC
:1027A0000072DAE77CB50446CB4900680C31CA4DAB
:1027B00051F8302001EBC0001368406803431360F8
:1027C000206855F82000016841F00101016020797E
:1027D00010B101280ED106E0206855F820000168EC
:1027E00041F0004105E0206855F82000016821F023
:1027F00000410160206855F82000016821F4804103
:102800000160206855F820000168B44A1143016056
:10281000A168A079CDE900016379E279E1682068D7
:10282000FFF75AFF21684FF0FF3055F82110C862BA
:10283000206855F82000016821F0010101607CBD8D
:1028400017B585B008208DF807108DF8050005989C
:102850000292C0F30200009000208DF804008DF871
:102860000600044603900AE0C0F34421C0F382123C
:102870002144C9B2C0F3C200FEF74CF8641C0598AD
:10288000C0F38431A142EFD86846FFF78BFF05986B
:1028900008B0C0F3020010BD8F4A10B552F82030C6
:1028A0001C6824F480441C6052F820000029016850
:1028B00002D021F4005101E041F40051016010BD4B
:1028C000854A10B552F820301C6824F480441C60FE
:1028D00052F820000029016802D021F4805101E063
:1028E00041F48051016010BD7B4B89B1012929D091
:1028F000022926D153F82010002A0A6B3AD042F45C
:1029000000320A6353F82000016B41F480312FE05C
:1029100053F82010002A0A6B02D042F0004201E076
:1029200022F000420A636C49091F0856012100F099
:102930001F02914040094FF0E02202EB8000C0F8F6
:102940000011704753F82010002A0A6B08D042F09B
:1029500000720A6353F82000016B41F0807107E0B8
:1029600022F000720A6353F82000016B21F080719D
:102970000163704722F400320A6353F82000016BB0
:1029800021F48031F4E7002902D0554A42F82010A2
:10299000704730B54FF0E045039C05EA017141EA0C
:1029A000C47101249C404FF47C1303EA044319438F
:1029B0001143494A52F82030596352F820100B6BEA
:1029C000002B06DBCB6A002BFCDACB6A43F000431A
:1029D000CB6252F82000806B80B230BD4148C16AA2
:1029E00041F00041C1623E480068002800D0004725
:1029F00070473D48C16A41F00041C16238484068B3
:102A0000002800D0004770473848C16A41F00041B3
:102A1000C16233488068002800D0004770472DE924
:102A2000FF4F2D4951F8200080460068002803DB45
:102A3000002004B0BDE8F08F00264FF0FF33B4460D
:102A40004FF0010BB6463046DFF88CA000210AF1AA
:102A5000240A0AF110091CE0012415E05AF820703C
:102A600059F821506F43039D6543B5FBF7F5AA4222
:102A700007D3571BBB4204D93B4606468C46AE469D
:102A8000A346641C032C01D2002BE7D1491C10295A
:102A900001D2002BE0D1401C042801D2002BD3D15D
:102AA00001990C2202EB810258F8020010490CF047
:102AB0000F0308404FF4403101EA064141EA0301A7
:102AC000BBF1010F41EA000101D041F0004148F89B
:102AD00002107046ADE70000CCC60300013C1F00A9
:102AE0006C07002000C0024000D0024000C00A4035
:102AF000F0FFFC7F30B5EB49CA6B42F00202CA63BB
:102B00000A6C42F002020A64E749CA6804780123A9
:102B1000A3409A43CA6041780378E44AC1F30501AF
:102B20009954817911B101290CD105E00178114442
:102B30000B7823F0400304E0017811440B7843F054
:102B400040030B700478DA49002301EB4414E3805E
:102B5000047801EB4414A3830478438801EB441404
:102B6000A3600478838801EB4414C3F30E03E3826B
:102B70000478838801EB4414C3F30E03E3830478E1
:102B8000C36801EB441423600478836801EB4414A8
:102B9000A380037801EB4313DC88057C2D02C5F389
:102BA000022544EA0524DC80037801EB4313DC882A
:102BB000057EED02C5F3C42544EAC524DC80047813
:102BC000436901EB4414E3600478036A01EB4414A5
:102BD00023610478C36901EB4414A382037801EBF9
:102BE0004313DC8890F82450C5F302052C43DC80A5
:102BF000037801EB4313DC8890F82C50ED00C5F30B
:102C0000C40544EAC504DC800478836A01EB4414FB
:102C1000A361037801EB43118B8B43F008038B8393
:102C200000781044017841F08001017030BDA04966
:102C300001EB4010C08AC0F30E0070479C4A02EBC3
:102C40004010C28A6FF30E02C282C28AC1F30E0123
:102C50000A43C28270479449C0F30300C8767047A4
:102C60009149C0F3030088767047914A002902EB2E
:102C70004010818B02D041F0080101E021F00801F1
:102C8000818370478A4B03EB401072B1828B42F014
:102C900020028283828B22F470628283828B0902FB
:102CA000C1F3032142EA012102E0818B21F02001DE
:102CB0008183704710B57E4A02EB401491B101291F
:102CC00014D07C4A022915D003290AD1105600F0ED
:102CD000DCF8A08B20F00400A083A08B40F0020061
:102CE000A08310BDA08B20F00400F9E7A08B20F09A
:102CF0000200F5E7105600F0C8F8A08B40F0040081
:102D0000EEE7002902D06C4A42F82010704766496D
:102D1000CB68012202FA00F21342C0F3030207D08B
:102D2000634B03EB4010808B000601D401207047F9
:102D30000A77002070475E4A02EB4010016170473D
:102D40005B4901EB401000697047594A02EB4010A3
:102D500001607047564901EB4010006870475248C7
:102D6000016841F40031016070474F490020C87785
:102D700051480068002800D0004770474A490120A8
:102D8000C8774D484068002800D000477047464942
:102D90000220C87748488068002800D00047704764
:102DA00041490320C8774448C068002800D0004744
:102DB00070473D490420C8773F480069002800D08B
:102DC0000047704738490520C8773B4840690028CC
:102DD00000D00047704734490620C87736488069DC
:102DE000002800D0004770472F490720C877324895
:102DF000C069002800D0004770472B490820C877D9
:102E00002D48006A002800D0004770472649092055
:102E1000C8772948406A002800D0004770472249F7
:102E20000A20C8772448806A002800D000477047ED
:102E30001D490B20C8772048C06A002800D00047F1
:102E4000704719490C20C8771B48006B002800D038
:102E50000047704714490D20C8771748406B002879
:102E600000D00047704710490E20C8771248806B89
:102E7000002800D0004770470B490F20C8770E4844
:102E8000C06B002800D00047704700F01F020121EE
:102E9000914040094FF0E02202EB8000C0F80011A1
:102EA0007047000000800440008000400010024095
:102EB0000090004040C703006407FF1F5F4910B542
:102EC0004A6842F440724A600A6C42F001020A64A5
:102ED0004A6C22F470024A644A6C03684FF470042E
:102EE00004EA03531A434A6455494A6842F001020E
:102EF0004A60C369002203EB430301EB83039A603A
:102F0000C369826803EB430341F82320C2680123AD
:102F100003EB0242C36903EB430301EB83035A60F3
:102F2000C26902EB420201EB8202936803F0C00324
:102F30009360C26902EB420201EB8202936844682B
:102F4000A40743EA146393604269002AC26902EB52
:102F5000420201EB820293682DD023F480739360C8
:102F60000269002AC26902EB420201EB8202936805
:102F700024D043F4007393608269002AC26902EB93
:102F8000420201EB820293681BD043F0200393605E
:102F9000C26902EB420201EB8202936823F47C4394
:102FA0009360C06900EB400001EB8000816841F450
:102FB0008061816010BD43F48073D0E723F4007317
:102FC000D9E723F02003E2E71D4A052835D2DFE8E0
:102FD00000F0030B151F2900106E20F070401066E2
:102FE000106E40EA017027E0106E20F070601066ED
:102FF000106E4FF0706303EA01611CE0106E20F464
:1030000070001066106E4FF4700303EA015112E075
:10301000106E20F470201066106E4FF4702303EAD7
:10302000014108E0106E20F470401066106E4FF6FB
:10303000FF7303EA013108431066704700800440C3
:1030400000C0004070B54FF0E0240546206940F014
:10305000040020612E49002000F0BAFB2C482D4AC4
:103060000168B1FBF2F14FF47A724A43C0E90012F1
:103070006943616170BD4FF0E0210028086902D00A
:1030800040F0020001E020F00200086170474FF0BC
:10309000E0210028086902D040F0010001E020F0A2
:1030A00001000861704710B540F2D240FFF7CAFF37
:1030B0000120FFF7ECFFBDE810400020DBE71449DA
:1030C000096848434FF0E0214861002088610869A1
:1030D00040F0010008610869C20701D0C003FAD5B9
:1030E000704730B50A494A684FF0E0214A610A69E1
:1030F00042F001020A610022144606E08C610B696D
:10310000DD0701D0DB03FAD5521C8242F6D330BD75
:103110001800002040420F00B949CA6B42F000522B
:10312000CA63B8490A6922F480720A6100780128EA
:1031300006D0022808D0032819D0042808D11AE0A4
:10314000086940F4005002E0086940F480500861CA
:10315000086940F48070086100204FF4C042401CB0
:103160009042FCD3486940F01000486170470869FC
:1031700040F40060EBE7086940F48060E7E708B5D9
:1031800003208DF800006846FFF7C6FF08BD70B544
:10319000431E00249C4D03E055F82460641C324417
:1031A0008C42F9DB64254FF4C87402290CDD90FBD6
:1031B000F4F104FB110131B1810705D190FBF5F168
:1031C00005FB110000B1521C93FBF5F0D91703EB7E
:1031D000917103EBA101081A93FBF4F10844104428
:1031E000072190FBF1F201FB120070BD10B50288BF
:1031F00040F26D13A2F2B2725A430A600388834C04
:1032000004EB93031A440A604388814C34F813306A
:103210001A440A6083881A440A6003889B0704D111
:103220004388022B01D8521E0A60837A40F2A324FD
:10323000624303EBC213C28800894FF461646243A6
:10324000C0EB001002EB80001844401C086010BD69
:1032500008B5002806D06B49096800910146684608
:1032600000F092F808BD6748006808B10020704778
:103270000120704708B5002806D06946FFF7B6FF61
:1032800000986049401E886008BD5E4A10B5D3684A
:1032900023F47F43D360D36823F0FF03D360D36864
:1032A0004FF6FF7404EA00200343D360D068C9B22C
:1032B0000843D06010BD534800687047514880688B
:1032C000704708B500280DD06946FFF78FFF4D48BD
:1032D000416921F01001416100990160416941F0AB
:1032E0001001416108BD47494A6922F010024A6154
:1032F0000860486940F0100048617047414948B192
:1033000001280BD002280ED003280BD1C86940F049
:1033100002000BE0C86920F0020002E0C86920F05A
:103320000400C8617047C86940F00400C8614220C9
:1033300000F01EB8002802D03349091F086070470A
:10334000314810B5001F006800B180472D48C169A1
:10335000890704D54169890701D501680160C16900
:10336000490704D54169490701D58168816010BDCD
:1033700000F01F020121914040094FF0E02202EBD2
:103380008000C0F80011704710B5224B02684FF45E
:103390006164B2FBF3F003FB1023B3FBF4F2CA80C9
:1033A00004FB12323C24B2FBF4F304FB13220B8126
:1033B0008A7240F2B27240F26D130A801A465C1CA7
:1033C00008E0801A0A88521C0A80920701D01A4627
:1033D00000E022469042F4D80A88920702D00C4BB3
:1033E0001A3B01E00A4B0D3B01229C5C844201D355
:1033F0004A8003E0001B521C0C2AF6D9888010BDBD
:103400000080044000D003401400FF1F14FEFFFFA3
:103410006AC703008051010030B5E04900E0491C53
:103420000807FCD1DE4ADD483030916000E0401CE6
:103430000307FCD1D0604B801824D84A0B8060323F
:103440008C6000E0521C1407FCD18025058043806D
:10345000036114BA2B02C0E901430A8842F020023A
:103460000A80018841F02001018030BDCD4808B5B7
:10347000C16A41F00101C162CB4900200860694680
:10348000022000F0A5F9C9490098B0FBF1F0400016
:103490000521B0FBF1F04000C549801C00F07E0022
:1034A000486408BDC24B10B55C6844F400045C601D
:1034B0004FF0786404EAC050641104EA8141084383
:1034C000BC49104308431864BB4900205A681202E3
:1034D00002D4401C8842F9D3884201D1C0B210BD49
:1034E000586840F400005860002010BDB04B10B583
:1034F0005C6844F400045C604FF0786404EAC050F7
:10350000641104EA81410843AC4908431864AA499C
:1035100000205C68240202D4401C8842F9D388420F
:1035200001D1C0B210BD586840F400005860186C5A
:103530001080002010BD70B506469A48C16A41F05F
:103540000101C162984800250560994C0120606224
:10355000284600BF401C80B26428FAD3FFF786FFDC
:10356000FFF75AFF9648417821F0040141709548D1
:10357000017841F08001017004F1A80465672567B6
:10358000E567A567306800F0D2F88F4844F8240C4E
:10359000E5617079002854F8240D06D040F002004F
:1035A0002060206C20F0040005E020F00200206084
:1035B000206C40F0040020643079A4F184040028D9
:1035C000D4F8840002D040F4007001E020F40070D0
:1035D000C4F8840010206062D4F8880143F6F071CA
:1035E0000843C4F888016E48C168C4F88011806837
:1035F000C4F884014FF0FF306060606A40F0020060
:1036000060624FF08070206170BD70B5644C0246FE
:10361000A06803881D06FDD412BA42600846FCF774
:10362000C1FFA16848800020086160208860AC204C
:1036300008805F494FF08070486170BD70B5584C8C
:103640000646E0680188090615D44088FCF7AAFF01
:1036500085B2E0682A46406801BA304620F04AFF49
:10366000E068018841F08001018051494FF080708D
:103670000861284670BD002070BD10B54C4C68B183
:1036800001280FD0022811D0032806D14D2000F0C8
:1036900042F8A06840F00070A06010BDA06820F063
:1036A0000060F9E7A06820F00070F5E74C2000F01A
:1036B00032F8A06840F00060EEE7002801D03849F9
:1036C00008607047002802D03549091D086070471E
:1036D00037484168090105D5416841F00061416002
:1036E00000207047012070473148416841F0006177
:1036F00041602B480068002800D0004770472C48E4
:10370000416841F0007141602548001D00680028B3
:1037100000D00047704700F01F020121914040098E
:103720004FF0E02202EB8000C0F800117047F0B5C6
:103730000168C27809BADFF878C021F0FF011143AF
:10374000CCF8E410818849BA0904CCF8E8101F4D80
:103750004FF0FF3100220024835CDE07B6EBC17F0F
:103760004FEA510100D069405B08641C082CF4DB6F
:10377000521C062AEFDB880E0121202807D3DCF833
:103780001821203881400A43CCF81821F0BDDCF81C
:103790001C2181400A43CCF81C21F0BDA407FF1F67
:1037A000200000200080044000D0004040420F0074
:1037B00000000C4000000250FFFF0100000002600A
:1037C00000400640005006400441F0052083B8ED5B
:1037D00030B5184B5A6C184D012404EB12722D6849
:1037E0006A4338B1012805D0022807D004280ED03A
:1037F000012030BD586C04EB107003E0586CC0F32E
:10380000036007E0B2FBF0F00860002030BD586CA8
:10381000C0F30340401CF5E70068704703B500980B
:1038200008600CBDFFF73FBCFFF75BBCFFF747BC70
:10383000704700000080044000000020FE4A01465E
:10384000106B0840FCD0704770B505680446C5F39E
:103850008150022801D145F40015E068C0F30C0145
:10386000A06841EA0041012803D945F4001040F066
:1038700022050020F04BF14A02E0401C904202D8A1
:103880005E6AB607F9D1186BED4A10431863606899
:103890009860596000201860DD60E9488038FFF7C3
:1038A000CDFF012801D0022070BD15F4403F07D0A4
:1038B00018692061586960619869A061D869E06100
:1038C000002070BD2DE9F04FDB4D002689B0E86A7D
:1038D000374640F00060E862E86A0001FCD400244A
:1038E0004FF4007ACDE9024A009468460194FFF74C
:1038F000ABFF10F0FF0F7CD1D24800904FF4D57091
:10390000CDE901046846FFF79FFFCF4A10F0FF0F93
:1039100042F2107105D0002089469046DFF82CB3A2
:1039200002E00127F7E70020401C4845FCD3CDE921
:103930000084761C68460294FFF786FFCDF800B03D
:103940000FB1C34801E04FF4401001906846FFF703
:103950007BFF0498002802DBB6F5967FE3D3B6F52B
:10396000967F61D0BB48CDE9000468460294FFF71A
:103970006BFF10F0FF0F57D1B74E0498B060059859
:10398000F0600698306107987061B448CDE9000492
:1039900068460294FFF758FF10F0FF0F44D10498D7
:1039A000AF49000C30850004CDE900100294684650
:1039B000FFF74AFF10F0FF0F36D10498B061059869
:1039C000F0610698306207987062A6480090308DCA
:1039D0000004CDE901046846FFF736FF10F0FF0F41
:1039E00022D1A148CDE9000A02946846FFF72CFFD6
:1039F00000E019E010F0FF0F16D1CDF80080308DF7
:103A00000004CDE901046846FFF71EFF10F0FF0F28
:103A10000AD196480227CDE9000702946846FFF7CD
:103A200013FF10F0FF0F03D0012009B0BDE8F08FA5
:103A3000A86A20F00600A862A86A40F00200A86206
:103A4000706A800D800702D00320306000E037608C
:103A50000020EAE7864910B50A6B42F400320A6397
:103A6000754C8449E162E16AC901FCD40021C4F8C3
:103A7000C0102821A1624FF001116164006800F0BC
:103A800084F94FF0FF3020636063002010BD08B55B
:103A90000422009000211046FCF73CFF0422012183
:103AA0001046FCF737FF042202211046FCF732FFD4
:103AB000042203211046FCF72DFF04221146104674
:103AC000FCF728FF042205211046FCF723FF012202
:103AD00000210420FCF73CFF012211460420FCF7E2
:103AE00037FF012202210420FCF732FF01220321CB
:103AF0000420FCF72DFF042101220846FCF728FFD3
:103B0000012205210420FCF723FF6846FFF7A2FFEE
:103B1000FFF7D8FE08BD10B50C464F4988B00968BC
:103B2000022900D140025449CDE900100120029041
:103B3000400203906846FFF787FE0004000C02D0A5
:103B4000042008B010BD3C488021026B12F4E00F45
:103B500005D0016B494A114301630120F1E7426A34
:103B60001205FCD5026A491E04C4EED10020E8E724
:103B700010B50C46384988B00968022900D14002C6
:103B80003F49CDE9001001200290400203906846B1
:103B9000FFF75AFE0004000C01D00420D1E72648AC
:103BA0008021026B12F4E00F06D0016B334A103A09
:103BB000114301630120C4E7426A5205FCD504CCDD
:103BC0000262491EEDD10020BBE7234810B5406AD0
:103BD000800D82072048D0E9071305D0012000EBB3
:103BE0001120401C400810BDC1F3C214641C022007
:103BF00000FA04F29C07240D04EB9151491C514337
:103C0000C3F30322521E90404143080D10BDF0B58E
:103C1000114F0D460C46396889B01646022900D16D
:103C20004002184900914FF400710391CDE901065B
:103C30006846FFF709FE27E000100B4020A10700AF
:103C400081000F0000001A0800001A370000022946
:103C50000000304000000902040EFF1F00001A039C
:103C60000000090900001B0700001A1000001A06D6
:103C7000008004400080000110003A112000700014
:103C800000003A1836003A120004000C02D002205C
:103C900009B0F0BD0022644814E0A90711D18021C9
:103CA000036B13F4E00F05D0016B604A114301630D
:103CB0000420EDE7436A1B05FCD5036A491E08C4CE
:103CC000EED1521CB242E8D3594D5A4E0024009511
:103CD000388D0004CDE901046846FFF7B5FD000406
:103CE000000C02D10498304204D10498C0F304209F
:103CF0000928ECD10020CBE7F0B54F4E0C4689B037
:103D000031681546022900D140024C4900914FF418
:103D100000710391CDE901056846FFF795FD0004A8
:103D2000000C01D00420B3E700223F4813E08021BB
:103D3000036B13F4E00F06D0016B3C4A103A1143B9
:103D400001630120A4E7436A5B05FCD508CC03624C
:103D5000491EEDD1521CAA42E9D3354D354F0024FE
:103D60000095308D0004CDE901046846FFF76CFD35
:103D70000004000C02D10498384204D10498C0F326
:103D800004200928ECD1002082E72DE9F8430646FB
:103D90002B484FF080080F25416821F040514160C9
:103DA0004168416069460020FFF712FD0221009B37
:103DB0004FF0FF32CF01012401FB04F07043C01A21
:103DC00004D4824202D9024688462546641C102C3F
:103DD000F2D94900B942EED91348C16A21F008016D
:103DE000C162C16A174A4FEA580311404FEA0512EF
:103DF000A2F110024FF6FF74D2B204EA032342EAA2
:103E0000030242EA010242F46021C162416A0907E9
:103E1000FCD5C16A41F00801C162016B41F4801117
:103E20000163BDE8F883000000100B402000700023
:103E300000001A0D0880D9FF040EFF1F26003A1952
:103E4000008004400F00F0FF4FF0E04100200880A8
:103E50004FF0F0400088704710B50C4681B220202A
:103E600000F00BFAA1B2212000F007FA4FF0E04178
:103E7000222008804FF0F0400088C0F34511C20AAC
:103E8000C00200EB4110104480B210BD2DE9F04794
:103E90000D4681B20446904699460E46202000F019
:103EA000ECF9A9B20F46212000F0E7F93146502085
:103EB00000F0E3F93946522000F0DFF904EB080086
:103EC000401E81B2512000F0D8F905EB0900BDE891
:103ED000F047401E81B2532000F0CFB910B5044620
:103EE00000214FF4A073F0220846FFF7CFFF4FF0F8
:103EF000E041222008800021A0B24FF0F0424FF4B0
:103F00009633491C10809942FBDB10BD4FF0E04313
:103F100022221A804FF0F04203E000BF30F8023B4B
:103F20001380491EFAD2704770B50D4681B214460F
:103F3000202000F0A2F9A9B2212000F09EF94FF054
:103F4000E041222008804FF0F040048070BD2DE950
:103F5000F04104460D4616461F4641F2300103204B
:103F600000F08BF9A1B2202000F087F9B1B2212036
:103F700000F083F94FF0E04122200880B8B24FF002
:103F8000F04101E00880641CAC42FBDBBDE8F0813D
:103F90002DE9F04104460D4616461F4641F2080140
:103FA000032000F06AF9B1B2202000F066F9A1B256
:103FB000212000F062F94FF0E04122200880B8B2E1
:103FC0004FF0F04101E00880641CAC42FBDBBDE82F
:103FD000F04141F23001032000F04FB9AA4810B57A
:103FE000816B88B041F478518163A8494FF4A8608F
:103FF000C864A74A5060A74B4FF4C8629A66A64AA5
:10400000106448640864C862886248620862C861D3
:104010008861D063906350631063C86588654865A4
:104020000865C8140390002005900790049006903E
:1040300002214FF0E042CDE9011268460091FEF7FF
:104040003DFF02210846FEF7BFFF042203210220A4
:10405000FCF740FD01220321FCF748FD0422132157
:104060000220FCF737FD044600221321FCF73EFD39
:104070000520FCF770FB012213212046FCF736FDDA
:104080000520FCF768FB0121002000F0F6F8102164
:104090002B2000F0F2F84FF48071012000F0EDF8D1
:1040A0004FF4E061022000F0E8F841F230042146CC
:1040B000032000F0E2F82146032000F0DEF80021A2
:1040C000042000F0DAF840F20221082000F0D5F8D0
:1040D0000021092000F0D1F800210A2000F0CDF8DD
:1040E00000210C2000F0C9F800210D2000F0C5F8D7
:1040F00000210F2000F0C1F80021502000F0BDF891
:10410000EF21512000F0B9F80021522000F0B5F85D
:1041100040F23F11532000F0B0F84FF41C516020E2
:1041200000F0ABF80121612000F0A7F800216A201F
:1041300000F0A3F80021802000F09FF800218120EA
:1041400000F09BF80021822000F097F800218320E6
:1041500000F093F80021842000F08FF800218520E2
:1041600000F08BF81021902000F087F800219220B9
:1041700000F083F80321932000F07FF84FF488715A
:10418000952000F07AF80021972000F076F80021C1
:10419000982000F072F80021102000F06EF8002145
:1041A000112000F06AF80021122000F066F80021CA
:1041B000132000F062F81420FCF7CDFA41F2B07140
:1041C000102000F05AF80421112000F056F80520C4
:1041D000FCF7C1FA4FF49F71122000F04EF8052051
:1041E000FCF7B9FA4FF4F851132000F046F80F210C
:1041F000292000F042F80520FCF7ADFA002120202C
:1042000000F03BF80021212000F037F84FF4017155
:10421000302000F032F80121312000F02EF800218A
:10422000322000F02AF8E110352000F026F84FF493
:10423000C061362000F021F84FF4A06421463720F9
:1042400000F01BF8611D382000F017F840F207411C
:10425000392000F012F821463C2000F00EF8E11C55
:104260003D2000F00AF840F27311072000F005F835
:104270000020FFF733FE08B010BD4FF0E042108081
:104280004FF0F040018070470080044000A00440DF
:1042900000C004400090044000B0044008B5002075
:1042A000ADF800005F486A460121006880B2FFF760
:1042B0001DF9BDF80000400701D5012008BD002010
:1042C00008BDF8B5574C00252060FFF7CFF82068EF
:1042D0004FF40042002180B2FFF7E4F80A20FCF717
:1042E0003AFA4FF6FF760A20FCF735FAADF800608F
:1042F00020686D1CADB26A46022180B2FFF7F6F865
:10430000BDF80000222803D00A2DECD30120F8BD0F
:1043100020686A46002180B2FFF7E8F820686A4604
:10432000012180B2FFF7E2F820686A46022180B2DC
:10433000FFF7DCF820686A46032180B2FFF7D6F861
:1043400020686A46042180B2FFF7D0F820686A46E8
:10435000052180B2FFF7CAF820686A46062180B2BC
:10436000FFF7C4F820686A46072180B2FFF7BEF85D
:1043700020686A46152180B2FFF7B8F820686A46BF
:104380001B2180B2FFF7B2F820686A461E2180B276
:10439000FFF7ACF820686A461E2180B2FFF7A6F846
:1043A00020684FF49052002180B2FFF77BF820681C
:1043B0006A46002180B2FFF799F86420FCF7CBF938
:1043C0006D1CADB21E2D09D820686A46012180B24D
:1043D000FFF78CF8BDF800008006EED5FFF75EFF12
:1043E0000020F8BD08B50F486A461F21006880B25A
:1043F000FFF77CF8BDF80000C00601D5012008BD1C
:10440000002008BD08B507486A461F21006880B231
:10441000FFF76CF8BDF80000400701D5012008BD8A
:10442000002008BD4400FF1F704716480068704711
:1044300010B5044604F0A2FE12490C60BDE810401D
:1044400004F0A0BE0F4810B50168491C016004F0DB
:1044500056F9016D491E016503D1C16C016504F077
:1044600017FABDE8104004F0ADBC00EBC00101EB51
:10447000001040F2E73101EB8000491CB0FBF1F085
:1044800070470000300000202DE9F041064604F09E
:1044900036F908B103F0DEFFAA4D55F8044F08E0E5
:1044A000A4F1100007460822314601F0E6FD50B1A4
:1044B0002468AC42F4D104F022F908B103F0D5FF2E
:1044C0000020BDE8F08104F01AF908B103F0CDFF37
:1044D0003846F6E72DE9F041040015460F464FF047
:1044E000FF3603D00846FFF7CFFF08B13046E8E7B4
:1044F0003A460721204603F074FD65830020A0772B
:10450000DFE710B518B103F098FD002010BD462379
:104510008D4A8EA191A001F0AAFFFEE770B5894EE9
:1045200056F8045F15E000BFA969A5F1100479B140
:10453000608BC0060CD420468847020004D0214678
:104540008EA001F094FF03E0608B40F010006083C8
:104550002D68B542E8D1002070BD70B504004FF061
:1045600000050FD0A16A002918D0608BC00615D4B1
:104570002046884705000DD0024621467FA001F065
:1045800076FF0BE0704AB423153270A173A001F0DE
:104590006EFFFEE7608B40F010006083284670BD20
:1045A00070B504000E464FF000050FD0608BC006BA
:1045B00018D4A16A002911D02046884705000DD0E3
:1045C000024621466DA001F052FF2FE05E4AD7233C
:1045D00024325EA161A001F04AFFFEE7608B40F04B
:1045E00010006083608B000705D5A08B000702D503
:1045F0006FF0060070BDA07F401C10F0FF00A07798
:1046000009D0E26A7AB131462046904705000AD0C7
:10461000A81D08D00AE04C4AF523243265A14FA01A
:1046200001F025FFFEE746F00800A083284670BD94
:1046300010B504004FF0000007D0A17F71B1491EF2
:1046400011F0FF01A1770CD010BD3F4A4FF48873E1
:1046500033323EA141A001F00AFFFEE74FF0FF30E8
:1046600010BD216B21B12046884708B1811DF7D1CB
:104670000021A18310BD10B538B1847F74B1446BA3
:104680007CB1A446BDE8104060472F4A40F2391380
:1046900043322EA131A001F0EAFEFEE74FF0FF30D9
:1046A00001E06FF0050001F017FC002010BD10B50F
:1046B00038B1847F74B1846B7CB1A446BDE81040EE
:1046C0006047214A40F25F13523220A123A001F03B
:1046D000CEFEFEE74FF0FF3001E06FF0050001F085
:1046E000FBFB002010BD10B520B1C36B5BB1BDE872
:1046F00010401847144A40F27F13623213A117A0EA
:1047000001F0B5FEFEE7002010BD10B510B101624A
:10471000002010BD0C4A4FF4CC7374320BA10FA0D3
:1047200001F0A5FEFEE710B510B14162002010BDFA
:10473000054A40F2AD138E3204A108A001F097FEA5
:10474000FEE70000C400002064C803006465762012
:10475000213D2052545F4E554C4C000028257329B2
:1047600020617373657274206661696C6564206191
:10477000742025733A2564200A000000546F2069D4
:104780006E697469616C697A6520646576696365D0
:104790003A2573206661696C65642E205468652033
:1047A0006572726F7220636F64652069732025647F
:1047B0000A0000006465762D3E7265665F636F7562
:1047C0006E7420213D2030003D49086070472DE97E
:1047D000F0413C4E54E000BF04F0D0FC044601F030
:1047E00069FB50B1384939A001F041FE5623364AE1
:1047F0003FA140A001F03BFEFEE7204604F0C2FCD2
:1048000004F0BCFC34680746B44228D0183CE56884
:1048100025B1286AA04201D10020286204F11800C5
:10482000D0E900124A60D0E900121160E061A06195
:10483000D4F8841009B120468847204603F09AFC3A
:10484000012838460BD004F09DFCE06A02F05CF8C9
:10485000204603F063FC9DB1286A20B10BE0BDE85F
:10486000F04104F08FBCE96B05F13C00814202D1BC
:10487000686B401E6863686B10B9284603F0B0F996
:104880003068B042A8D1BDE8F0810D4C206800B17D
:104890008047FFF79CFFF9E71FB520231D483F2203
:1048A00059018DE80F0000231B4A1CA1903803F02A
:1048B000F9FE04B01748BDE81040903803F048BF37
:1048C0004800FF1F040100200CC9030046756E63F9
:1048D00074696F6E5B25735D207368616C6C206E0C
:1048E0006F74207573656420696E204953520A0005
:1048F00030000000282573292061737365727420CD
:104900006661696C65642061742025733A256420B2
:104910000A000000080800208B4800007469646CDD
:10492000650000002DE9F041064614460D46084694
:1049300003F0D7FF05F11807B4B1012C18D1346882
:104940000EE000BF95F8391094F82120A4F118006A
:10495000914204D23946183001F068FA02E0246826
:10496000B442EFD1B44203D13946304601F05EFA89
:104970000020BDE8F08170B5040015461E460BD03E
:104980000A46012103F02DFB04F11800E061A0614B
:1049900025846672002070BDD823F54AF5A1F9A0E0
:1049A00001F065FDFEE710B5040008D004F1180021
:1049B00001F04AFA204603F040FB002010BDEC4A0B
:1049C000F5230C32EBA1EFA001F051FDFEE72DE93C
:1049D000F04106460C46154604F0D0FB074601F0B0
:1049E00069FA68B1E249EFA01A3101F040FDE04AEE
:1049F00040F211131A32F4A1E2A001F038FDFEE7F3
:104A0000384604F0BFFB3146012003F031FB00289B
:104A1000AFD000F11801C161816104844572A8E73B
:104A200070B5044604F0AAFB054601F043FA68B1EC
:104A3000CF49DCA0283101F01AFDCD4A4FF498731C
:104A40002832E1A1CFA001F012FDFEE7284604F0D4
:104A500099FB44B104F1180001F0F6F9204603F087
:104A60005DFB002070BDC24A4FF499732832C1A18A
:104A7000C4A001F0FCFCFEE72DE9F34104000FD0D7
:104A8000D248016809B12046884704F077FB064602
:104A9000208C70B1401E2084304604F073FB60E02F
:104AA000B34A40F24D133632B2A1B6A001F0DFFC9A
:104AB000FEE70198D8B104F061FB804603F01FFEC9
:104AC00040F26D15D0B104F059FB074601F0F2F940
:104AD000002820D0A649B3A0363101F0C8FCA44A72
:104AE0002B463632B8A1A7A001F0C1FCFEE7304644
:104AF00004F048FB6FF00100BDE8FC819C49B4A0C4
:104B0000363101F0B4FC9A4A2B463632AEA19DA054
:104B100001F0ADFCFEE7384604F034FB404604F0FB
:104B200031FB03F0ECFD054600206863627A2946FC
:104B300004F11800FFF7F6FE0198002809DD05F1E1
:104B4000540001AA0021074604F019F9384604F080
:104B500084F8304604F016FB03F0DEFB686B002897
:104B6000CAD1A948016809B1204688470020C3E797
:104B7000002181E770B50446A448016809B12046C8
:104B8000884704F0FBFA0546A16904F11800814248
:104B900007D001F052F9284604F0F4FA03F0BCFB08
:104BA00005E0208C401C2084284604F0EBFA00200D
:104BB00070BD70B5040004D001290BD04FF0FF3058
:104BC00070BD6B4A4FF4F27342326AA16DA001F0DE
:104BD0004EFCFEE7154604F0D1FA064604F1180033
:104BE00001F032F92584304604F0CCFA03F094FB4E
:104BF000002070BD70B50400154614D00A4602218D
:104C000003F0EFF904F11800E061A06104F1080479
:104C1000012020834FF000004FF0FF01E061A176FA
:104C2000E076657070BD524A40F20F23513278A190
:104C300054A001F01CFCFEE710B5040008D004F1FC
:104C4000180001F001F9204603F0F7F9002010BD2B
:104C5000474A40F22E235F326DA14AA001F007FCC3
:104C6000FEE770B505460C4604F088FA064601F0EA
:104C700021F968B13E494BA06F3101F0F8FB3C4A85
:104C800040F249236F3250A13EA001F0F0FBFEE755
:104C9000304604F077FA2946022003F0E9F90028AB
:104CA0000DD000F11801C161816101210184002151
:104CB000FF22416280F8222080F82310447270BDE8
:104CC00070B5044604F05AFA054601F0F3F868B1ED
:104CD000274934A07F3101F0CAFB254A40F26A23FC
:104CE0007F3239A127A001F0C2FBFEE7284604F07D
:104CF00049FA44B104F1180001F0A6F8204603F087
:104D00000DFA002070BD1A4A4FF41B737F3240A188
:104D10001CA001F0ACFBFEE72DE9F341044604F0D2
:104D20002DFA064603F0EBFC4FF4227598B104F01F
:104D300025FA074601F0BEF8002874D00C4919A0E6
:104D40008F3101F094FB0A4A2B468F321EA10DA031
:104D500001F08DFBFEE706491DA08F3101F087FBB6
:104D6000034A2B468F3218A106A001F080FBFEE714
:104D700033CB030073656D20213D2052545F4E55A7
:104D80004C4C0000282573292061737365727420D0
:104D90006661696C65642061742025733A2564201E
:104DA0000A00000046756E6374696F6E5B25735D63
:104DB000207368616C6C206E6F742075736564205D
:104DC000696E204953520A0030000000480000205C
:104DD00046756E6374696F6E5B25735D20736861E1
:104DE0006C6C206E6F742062652075736564206240
:104DF00065666F7265207363686564756C657220A3
:104E000073746172740A00004C000020500000208E
:104E10006D7574657820213D2052545F4E554C4C81
:104E200000000000FFE7384604F0ACF9304604F01B
:104E3000A9F9ACB104F0A2F9064603F060FC0546FE
:104E4000FC48016809B12046884700206863636A0E
:104E5000AB420FD194F82300401C84F8230044E0B7
:104E6000F54A40F28A23AFF25801AFF2E80001F0B0
:104E7000FEFAFEE7208C60B1401E24F8200F65602A
:104E800095F83900A070E078401CE070A4F120048F
:104E90002BE0019898B395F8390093F839108842BF
:104EA00005D205F139020221184603F0CDFD627AE0
:104EB000294604F11800FFF735FD0198002809DDA7
:104EC00005F1540001AA0021074603F058FF3846B7
:104ED00003F0C3FE304604F055F903F01DFA686B89
:104EE00000280BD104F04AF90646304604F04AF98E
:104EF000D248016809B1204688470020FCE5FFE759
:104F00006FF0010430466C6304F03CF92046F3E591
:104F10002DE9F041044604F031F9064603F0EFFBB9
:104F200040F20D35B0B104F029F9074600F0C2FF98
:104F300000281FD0C0490E31AFF2981001F097FA47
:104F4000BD4A2B460E32AFF28011AFF2C81001F00D
:104F50008EFAFEE7B8490E31AFF28C1001F087FAF5
:104F6000B54A2B460E32AFF2A011AFF2E81001F0B5
:104F70007EFAFEE7384604F005F9304604F002F9FF
:104F800003F0BDFB054604F0F9F80646AC4801689D
:104F900009B120468847606AA84207D04FF0FF3425
:104FA00030466C6304F0EEF82046E2E494F82310F7
:104FB000491E11F0FF0184F823102BD194F8221020
:104FC00090F83920914204D004F12202022103F02A
:104FD0003BFDA06904F11801884213D004F12004BC
:104FE0001838606090F83900A070E07800F1010096
:104FF000E070084600F021FF304604F0C3F803F0EB
:105000008BF90AE0208C401C208400206062FF2085
:1050100084F82200304604F0B5F80020A9E44FF0EF
:10502000FF30704770B5040015460BD00A460321C7
:1050300002F0D7FF657204F11800E061A061002062
:10504000206270BD7C4A40F27B331F327DA1AFF2FB
:10505000CC2001F00CFAFEE710B5040008D004F1F2
:10506000180000F0F1FE204602F0E7FF002010BD1E
:10507000714A40F297332D3272A1AFF2F82001F05D
:10508000F6F9FEE770B505460C4604F077F80646DB
:1050900000F010FF80B168493D31AFF2F82001F017
:1050A000E6F9654A4FF46C733D32AFF2E421AFF29A
:1050B0002C3001F0DCF9FEE7304604F063F82946B5
:1050C000032002F0D5FF002806D0447200F1180139
:1050D000C16181610021016270BD70B5040017D00B
:1050E00004F04CF8054600F0E5FE00281AD05249BD
:1050F0004D31AFF2503001F0BAF94F4A4FF47473AA
:105100004D32AFF23C31AFF2843001F0B0F9FEE73E
:10511000494A40F2CE334D324AA1AFF2983001F005
:10512000A6F9FEE7284604F02DF804F1180000F077
:105130008BFE204602F0F2FF002070BD2DE9F04109
:1051400005000C4615D04FF0FF30002C4BD03C48EA
:105150000027016809B12846884704F00FF8804607
:10516000286A05F1180620432862AC69B44221D1AF
:1051700032E0314A40F2EF335D3232A1AFF2FC301F
:1051800001F075F9FEE700BF94F83010A4F11800A3
:10519000CA0717D0416C2A6A91431BD190F8481076
:1051A0002468490703D5296A426C9143296203F0B8
:1051B000A9FA0127B442E7D1404603F0E3FF012FEB
:1051C0000ED00FE0890705D5416C2A6A114001D045
:1051D0004164E3E72468EDE7404603F0D3FF01E0D4
:1051E00003F09AF800201AE42DE9FF4705460E4621
:1051F0001746DDF8308003F0C1FF824603F07FFAE6
:1052000040F24F4440B303F0B9FF814600F052FE34
:10521000002830D008496B31AFF2784001F027F90F
:10522000054A23466B32AFF26041AFF2A84001F06D
:105230001EF9FEE748000020C2CB03004C0000200E
:10524000500000206576656E7420213D2052545F29
:105250004E554C4C00000000FFE7FE49AFF2904075
:1052600001F005F9FB4A2346AFF2A441AFF2EC404E
:1052700001F0FDF8FEE7484603F084FF504603F0D6
:1052800081FFBDB14FF0FF30002E65D003F037FA3B
:10529000044600206063F048016809B12846884749
:1052A00003F06CFF8146F8070ED0286A36EA00004A
:1052B0000FD022E0E74A40F25243AFF27801AFF25A
:1052C0003C5001F0D4F8FEE7B8070CD5286A30420C
:1052D00013D0286A3040C8F80000780733D5286A10
:1052E000B04328622FE0DB4A4FF48E63AFF22851BF
:1052F000AFF2705001F0BBF8FEE7039878B3666434
:1053000084F848706A7A214605F11800FFF70AFB15
:105310000398002809DD04F1540003AA0021064681
:1053200003F02DFD304603F098FC484603F02AFFB9
:1053300002F0F2FF606B00280ED103F01FFF616CDA
:105340008146C8F80010484603F01CFFC3480168B6
:1053500009B128468847606B04B0BDE8F087FFE7D5
:105360006FF001006063EEE770B5040004D001291E
:105370000DD04FF0FF3070BDB64A40F2BE430E3242
:10538000AFF24011AFF2046001F071F8FEE703F0F4
:10539000F5FE054604F1180000F056FD00202062DD
:1053A000284603F0EFFE02F0B7FF002070BD2DE9A4
:1053B000F0410400069F16461D4612D00A460421FD
:1053C00002F00FFE677204F11800E0612662A0612E
:1053D000A5840020E084208560852C3464602460EE
:1053E000E3E59C4A40F2EB431F329DA1AFF26C60B3
:1053F00001F03DF8FEE710B504000CD004F11800F0
:1054000000F022FD04F12C0000F01EFD204602F009
:1054100014FE002010BD8F4A40F20E532A3290A194
:10542000AFF2A06001F023F8FEE72DE9F041044659
:105430000D46164603F0A2FE074600F03BFD80B184
:1054400084493731AFF2A46001F011F8814A40F28B
:105450002A533732AFF29061AFF2D86001F007F80B
:10546000FEE7384603F08EFE2146042002F000FEDF
:10547000040014D0667204F11800E061A061A8B2C3
:10548000A084800001F084F9206248B10020E0840B
:105490002085608504F12C002063E062204684E5CD
:1054A000204602F03BFE00207FE570B5044603F085
:1054B00065FE054600F0FEFC80B166494431AFF25E
:1054C0001C7000F0D4FF634A40F255534432AFF2EF
:1054D0000871AFF2507000F0CAFFFEE7284603F0F3
:1054E00051FE7CB104F1180000F0AEFC04F12C0078
:1054F00000F0AAFC206A01F007FA204602F00EFE36
:10550000002070BD534A4FF4AB63443254A1AFF254
:105510008C7000F0ACFFFEE72DE9F74F82B004007D
:105520008A4619D04FF0000903F0E9F805465048C3
:10553000016809B12046884703F020FE0746E08C49
:10554000A18C00266FF002084FF4B56B884278D129
:10555000049800282AD074E03E4A40F28553513224
:105560003FA1AFF2E07000F082FFFEE76E630498A7
:10557000E0B103F003FE009003F0C1F8E8B103F0DE
:10558000FDFD019000F096FC002826D031495131F4
:10559000AFF2F07000F06BFF2E4A5B465132AFF273
:1055A000D871AFF6200000F062FFFEE7384603F046
:1055B000E9FD404605B0BDE8F08F26495131AFF214
:1055C000F07000F054FF234A5B465132AFF60801F9
:1055D000AFF6500000F04BFFFEE7019803F0D2FD5C
:1055E000009803F0CFFD627A294604F12C00FFF702
:1055F00099F9049800280CDDFEF717FF814605F1A4
:10560000540004AA0021009003F0B9FB009803F0B5
:1056100024FB384603F0B6FD02F07EFE686B0028DE
:10562000C8D103F0ABFD07460498002809DDFEF75A
:10563000FCFE0499A0EB0909B1EB0900049000D528
:105640000496E08CA18C884290D0228D216A41F88A
:1056500022A00FE02DCC0300480000204C000020C9
:105660006D6220213D2052545F4E554C4C0000008D
:1056700050000020208D401C80B22085A18C8842E3
:1056800000D32685E08C401CE084A16904F1180059
:10569000814207D000F0D1FB384603F073FD02F0E1
:1056A0003BFE02E0384603F06DFD002082E7002259
:1056B00032E72DE9F74F82B004008A4617D04FF049
:1056C000000903F01CF80546FE48016809B12046B0
:1056D000884703F053FD0646E08C04996FF00108FB
:1056E000084340F23B6B4FF000070AD075E0F64AE2
:1056F00040F21663AFF29801AFF6781000F0B7FEF3
:10570000FEE7304603F03EFD404653E76F630498E2
:10571000D0B103F033FD009002F0F1FFD8B103F0F7
:105720002DFD019000F0C6FB002822D0E649AFF61F
:105730008C1000F09CFEE44A5B46AFF67411AFF6A5
:10574000BC1000F094FEFEE7304603F01BFD40461F
:10575000C5F834802EE7DC49AFF68C1000F087FEE8
:10576000D94A5B46AFF6A011AFF6E81000F07FFE15
:10577000FEE7019803F006FD009803F003FD627A4E
:10578000294604F11800FFF7CDF8049800280CDD35
:10579000FEF74BFE814605F1540004AA002100905B
:1057A00003F0EDFA009803F058FA304603F0EAFCF3
:1057B00002F0B2FD686B0028A7D103F0DFFC0646BB
:1057C0000498002809DDFEF730FE0499A0EB0909D2
:1057D000B1EB0900049000D50497E08C002895D027
:1057E000618D206A50F82110CAF80010608D401CAD
:1057F00080B26085A18C884200D36785E08CB34D70
:10580000401EE084E16A04F12C0081420BD000F0DC
:1058100014FB304603F0B6FC296809B120468847DE
:1058200002F07AFD06E0304603F0ACFC296809B1CD
:10583000204688470020BDE670B5040004D0012949
:105840000DD04FF0FF3070BD9F4A40F299630B328C
:10585000AFF2F411AFF6D42000F009FEFEE703F03A
:105860008DFC054604F1180000F0EEFA04F12C005E
:1058700000F0EAFA0020E08420856085284603F0E5
:1058800081FC02F049FD002070BD2DE9F0410400CB
:10589000DDE9068716461D4618D00A46052102F0A6
:1058A000A0FB677204F11800E0612662ED1DA061A3
:1058B00025F0070080B2A084001DB8FBF0F0E08462
:1058C0000021E16221630846616312E07E4A40F2F2
:1058D000D56319327EA1AFF6543000F0C8FDFEE763
:1058E000A28C236A121D00FB0232636B1360401C02
:1058F0006263E28C8242F3DC2185002073E410B500
:10590000040008D004F1180000F09EFA204602F0CE
:1059100094FB002010BD6C4A40F2067324326CA147
:10592000AFF6A03000F0A3FDFEE770B5044603F02B
:1059300025FC054600F0BEFA80B163493E31AFF662
:105940009C3000F094FD604A4FF4EC633E32AFF6B9
:105950008831AFF6D03000F08AFDFEE7284603F02C
:1059600011FC5CB104F1180000F06EFA206A00F03E
:10597000CBFF204602F0D2FB002070BD524A40F21D
:1059800063733E3252A1AFF6044000F070FDFEE7B3
:105990002DE9F04104460E4615461F4603F0EEFB86
:1059A000804600F087FA80B147493131AFF60C40AC
:1059B00000F05DFD444A40F226733132AFF6F83113
:1059C000AFF6404000F053FDFEE7404603F0DAFB3F
:1059D0002146052002F04CFB04001BD0677204F145
:1059E0001800E061F61DA06126F0070080B2A084D7
:1059F000A9B2001DE184484300F0CAFE206228B12C
:105A00000021E1622163084661630DE02046FFF753
:105A10008CFF0020E4E4A28C236A121D00FB0232FA
:105A2000636B1360401C6263E28C8242F3DC21856D
:105A30002046D5E42DE9F04104000F46164608D073
:105A40008FB1002E19D0A08CB04220D24FF0FF3081
:105A5000C6E41D4A40F289734B321DA1AFF6DC400B
:105A600000F005FDFEE7184A40F28A734B321CA194
:105A7000AFF6F04000F0FBFCFEE7134A40F28B73F8
:105A80004B321CA1AFF6045000F0F1FCFEE71C48BD
:105A9000016809B12046884703F070FB656B8DB340
:105AA0002968616303F06EFB0020286032463946A6
:105AB000281D00F04CFA03F061FB0646206B00B194
:105AC000056020E0480000208ECC03004C00002040
:105AD0006D7120213D2052545F4E554C4C0000000A
:105AE00062756666657220213D2052545F4E554CAA
:105AF0004C00000073697A6520213D2030000000D1
:105B00005000002003E02563E06A28B105E003F0BF
:105B100039FB6FF0020063E4E562208D401C2085B4
:105B2000A16904F11800814207D000F086F93046DF
:105B300003F028FB02F0F0FB02E0304603F022FB0A
:105B400000204DE42DE9F04104000F46164608D030
:105B50008FB1002E19D0A08CB04220D24FF0FF3070
:105B60003EE4C44A40F2E173AFF29C01AFF6EC5060
:105B700000F07DFCFEE7BF4A40F2E273AFF2A00105
:105B8000AFF6006000F073FCFEE7BA4A40F2E37340
:105B9000AFF2A001AFF6146000F069FCFEE7B64872
:105BA000016809B12046884703F0E8FA656B8DB1BA
:105BB0002968616303F0E6FA32463946281D00F091
:105BC000C6F903F0DBFA0646E06A2860E562206B5E
:105BD00028B105E003F0D6FA6FF002005FE4256318
:105BE000208D401C2085A16904F11800814207D056
:105BF00000F023F9304603F0C5FA02F08DFB02E015
:105C0000304603F0BFFA002049E42DE9FF4F83B08E
:105C100004008B4616461AD0BBF1000F22D0002E8E
:105C20002BD04FF0000A02F06AFD05469348016848
:105C300009B12046884703F0A1FA0746208D06994E
:105C40006FF0010808434FF0000921D08EE0894A27
:105C500040F639030D32AFF28811AFF6D86000F08C
:105C600006FCFEE7834A40F63A030D32AFF290118C
:105C7000AFF6F06000F0FBFBFEE77E4A40F63B0328
:105C80000D32AFF29011AFF6047000F0F0FBFEE7BA
:105C9000384603F077FA404607B08CE403F06EFA1A
:105CA000009002F02CFDB8B103F068FA019000F00A
:105CB00001F9002821D06F490D31AFF6187000F0BE
:105CC000D6FB6C4A40F651030D32AFF2D011AFF65D
:105CD0004C7000F0CCFBFEE766490D31AFF610705A
:105CE00000F0C5FB634A40F651030D32AFF2F411E8
